:020000040800F2
:10000000A80C002065100008090600080B0600086F
:100010000F0600081306000817060008000000007D
:100020000000000000000000000000001B060008A7
:100030001D060008000000001F0600082106000839
:100040007F1000087F1000087F1000087F10000854
:100050007F1000087F1000087F1000087F10000844
:100060007F1000087F1000087F1000087F10000834
:100070007F1000087F1000087F1000087F10000824
:100080007F1000087F1000087F1000087F10000814
:100090007F1000087F1000087F1000087F10000804
:1000A0007F1000087F1000087F1000087F100008F4
:1000B0007F1000087F100008653500087F100008D9
:1000C0007F1000087F1000087F1000087F100008D4
:1000D0007F100008DB0F00087F1000087F10000869
:1000E0007F1000087F1000087F10000800F002F861
:1000F00000F076F80AA090E8000C82448344AAF14C
:100100000107DA4501D100F06BF8AFF2090EBAE849
:100110000F0013F0010F18BFFB1A43F0010318473B
:100120003C7700005C7700000A444FF0000C10F8A8
:10013000013B13F0070408BF10F8014B1D1108BF65
:1001400010F8015B641E05D010F8016B641E01F805
:10015000016BF9D113F0080F1EBF10F8014BAD1C55
:100160000C1B09D16D1E58BF01F801CBFAD505E073
:1001700014F8016B01F8016B6D1EF9D59142D6D3CD
:10018000704700000023002400250026103A28BFF5
:1001900078C1FBD8520728BF30C148BF0B607047F9
:1001A000662905F0C786642903F0CA87752903F01C
:1001B000C787782904F00080632904F080837329BD
:1001C00004F08583002070471FB504F097FB0400FE
:1001D0000020002105F0E8F8E0601FBD10B510BD5B
:1001E00004F090FC1146FFF7EFFF00F074F904F003
:1001F000AEFC03B4FFF7F2FF03BC00F093FE000077
:100200002DE9FC5F1421002000F007FEE44908807E
:100210000846008805F0AEFD824605F07FFD804669
:10022000E04AE14B05F050FB064600224FF08043C8
:1002300005F04AFB044605F0CDF8DC4908600846A5
:100240000068DB490860D948006805F067FD04468E
:1002500022460B46D7A1684603F00EFF0C236A46E0
:100260003421002000F09EFC1421012000F0D5FD77
:10027000CB4908800846008805F07CFD824605F0E1
:100280004DFD0646C74ACD4B05F01EFB80460022B9
:10029000CB4B05F085F9044605F09CF8C949086088
:1002A0000846006805F03AFD0446BE4AC64B05F014
:1002B00009FC18D8C348006805F030FD8246B94AE9
:1002C000C14B05F041FC80460022C04B05F0FCFA12
:1002D00006460022BE4B05F063F9044605F07AF8A5
:1002E000B849086017E0B748006805F017FD804678
:1002F000AC4AB54B05F01CFC06460022B34B05F09A
:10030000E3FA04460022B24B05F04AF9824605F0B2
:1003100061F8AC490860AB48006805F0FFFC044692
:1003200022460B46A3A1684603F0A6FE0C236A46AC
:1003300034212B2000F036FCA24801689C4800685C
:1003400005F02CFD9A4908600846006805F0E6FCB7
:10035000044622460B4697A1684603F08DFE0C2307
:100360006A4634215C2000F01DFC1421032000F0BB
:1003700054FD8B4908800846008805F0FBFC824646
:1003800005F0CCFC0646874A874B05F09DFA0446EB
:100390000022904B05F098FA804605F01BF88E4934
:1003A0000860084600688D4908608B48006805F0C1
:1003B000B5FC044622460B467EA1684603F05CFE6F
:1003C0000C236A461221002000F0ECFB14210220CD
:1003D00000F023FD724908800846008805F0CAFC39
:1003E000824605F09BFC80466E4A744B05F06CFA21
:1003F00006460022724B05F0D3F8044604F0EAFFEB
:10040000774908600846006805F088FC0446654A9C
:100410006D4B05F057FB18D87148006805F07EFC5D
:100420000646604A684B05F08FFB80460022674B0A
:1004300005F04AFA04460022654B05F0B1F8824601
:1004400004F0C8FF6649086017E06548006805F0D9
:1004500065FC0646534A5C4B05F06AFB04460022E5
:100460005A4B05F031FA80460022594B05F098F8B6
:10047000824604F0AFFF5A4908605948006805F009
:100480004DFC044622460B464AA1684603F0F4FDA3
:100490000C236A4612212B2000F084FB504801688F
:1004A0004E48006805F07AFC4C4908600846006830
:1004B00005F034FC044622460B463EA1684603F094
:1004C000DBFD0C236A4612215C2000F06BFB00F080
:1004D000F2F9BDE8FC9F002400F0BAFC4FF4A060E4
:1004E00001F064FB4FF4E13000F02BFD00F08AF9DD
:1004F00000F03AFC4FF47A7000F0E7FC39480068ED
:1005000008B9012000E000203649086000F079FBBE
:100510003548416848208847102334A20021084606
:1005200000F040FB0C2333A234211E2000F03AFBE4
:100530000C2331A23421492000F034FB0C232FA2DC
:1005400034217A2000F02EFB10232DA2222100203E
:1005500000F028FB0C2327A212211E2000F022FB12
:100560000C2325A21221492000F01CFB0C2323A2FE
:1005700012217A2000F016FB11E00A2000F0A5FC01
:10058000FFF73EFE601CC4B2052C08DB154800686E
:1005900008B9012000E00020124908600024ECE7BF
:1005A00000000020B81E85EB51B84A3F140000201F
:1005B0001800002025322E326600000051B80A4093
:1005C0000000B0401000002051B8FA3F00408F40BA
:1005D0000080604000001040080000200C00002057
:1005E00004000020A00121428C0000205553423A13
:1005F000000000005600000041000000570000000D
:100600004241543A00000000704700BFFEE700BFBF
:10061000FEE700BFFEE700BFFEE770477047704788
:10062000704700000CB50020019000906C480068F5
:1006300040F480306A49086000BF6948006800F4EF
:10064000003000900198401C0190009818B9019862
:10065000B0F5A06FF1D16248006800F4003010B12D
:100660000120009001E0002000900098012843D173
:100670005C48006840F010005A490860084600686D
:1006800020F0030008600846006840F0020008609F
:1006900053484068524948600846406848600846E8
:1006A000406840F4806048600846406820F47C1050
:1006B00048600846406840F4E81048600846006812
:1006C00040F08070086000BF4548006800F000708E
:1006D0000028F9D04248406820F0030040494860B3
:1006E0000846406840F00200486000BF3C4840684F
:1006F00000F00C000828F9D10CBD10B5FFF792FFEF
:1007000010BD10B53648006840F00100344908605B
:100710000846406834490840314948600846006846
:10072000324908402E4908600846006820F48020BD
:1007300008600846406820F4FE0048604FF41F003F
:100740008860FFF7DAFF4FF000602949086010BDAC
:1007500010B5002100200022214B5B6803F00C0142
:1007600021B1042906D0082928D107E0214B224CC9
:10077000236027E01F4B204C236023E0184B5B686D
:1007800003F47010164B5B6803F48032022303EB12
:10079000904022B9194B4343174C23600DE0104B96
:1007A0005B6803F4003323B1144B4343124C2360C2
:1007B00003E0104B4343104C236003E00D4B0E4C01
:1007C000236000BF00BF064B5B68C3F303130C4CF0
:1007D000E15C094B1B68CB40074C236010BD000057
:1007E00000100240002002400000FFF8FFFFF6FE6C
:1007F00008ED00E000127A001C00002000093D0016
:100800002000002008B50121042000F067FF4FF40C
:100810008070ADF8000010208DF8030003208DF8E3
:1008200002006946044800F09DFC4FF480710248C4
:1008300000F045FD08BD00000008014000F0010186
:10084000FE4A1160C0F34001FD4AC2F88411C0F3B2
:100850008001FA4A08321160C0F3C001F74A283219
:100860001160C0F30011121D1160C0F34011F34A72
:1008700014321160C0F38011121D1160C109F04AD9
:10088000C2F89C11704710B504460B462046FFF78E
:10089000D5FFEC4803600020EB49C1F89401E94919
:1008A0000C31086001200860E649091D0860E6492E
:1008B000C1F8900110BD30B500241CE004F1B00176
:1008C000C8B20021FFF7DFFF00210846FFF7DBFF7A
:1008D00000211020FFF7D7FF002508E0DB4901EBDE
:1008E000C501085D0121FFF7CEFF681CC5B2802D50
:1008F000F4DB601CC4B2082CE0DB30BD00B5002185
:100900008D20FFF7C0FF00211420FFF7BCFF00215E
:10091000AF20FFF7B8FF00BD00B500218D20FFF725
:10092000B2FF00211020FFF7AEFF0021AE20FFF73D
:10093000AAFF00BD30B500240CE0002506E0002031
:10094000C24901EBC5010855681CC5B2802DF6DB14
:10095000601CC4B2082CF0DBFFF7ADFF30BDF0B572
:10096000144600267F2801DC3F2900DDF0BD0B4640
:10097000CF1701EB5777FF10C7F10707FAB2CF1770
:1009800001EB5777FF10A1EBC707FDB2C5F10707D1
:100990000123BB40DEB24CB1AC4B03EBC0039B5C0C
:1009A0003343AA4F07EBC007BB5408E0A74B03EB48
:1009B000C0039B5CB343A54F07EBC007BB5400BF0C
:1009C000D4E72DE9F04706460F4690469946DDF8F4
:1009D00020A034460CE03D4606E05246294620461B
:1009E000FFF7BDFF681CC5B24D45F6DD601CC4B203
:1009F0004445F0DDFFF75FFFBDE8F0872DE9F84FD4
:100A000080460F4616461C46BA462046E31704EBBE
:100A10005373DB1021464FEAE47C04EB5C7C4FEA25
:100A2000EC0CA4EBCC0CBCF1000F02D04FF0010C8D
:100A300001E04FF0000C6344224604EBD27C4FEA05
:100A40006C0C03FB0CF303F0FF0BA6F12000C6B205
:100A500000254EE00C2C07D106EB46007C4901EB4B
:100A60008000405D009013E0102C05D1794800EB28
:100A70000610405D00900BE0182C07D106EBC60075
:100A8000754901EB8000405D009001E0BDE8F88F02
:100A90004FF0000927E0009800F0800028B13946A7
:100AA00040460A9AFFF75BFF09E00A9808B901205F
:100AB00000E00020024639464046FFF750FF00980C
:100AC0004006000E0090781CC7B2A7EB0A00A042B7
:100AD00005D1574608F1010000F0FF0806E009F1D2
:100AE000010000F0FF09B9F1080FD4DB00BF681C5A
:100AF000C5B25D45AEDB00BFC8E710B502460120B8
:100B000000E050430B1EA1F10104E1B2F9D110BD88
:100B10002DE9FF4F81B0074691461E460E9D4FF0CE
:100B2000000A002439E0301B401EC1B20A20FFF742
:100B3000E4FFB9FBF0F00A21B0FBF1F201FB12086F
:100B4000BAF1000F16D1701EA04213DDB8F1000FEC
:100B50000ED10120AB4605EBDB71491001FB04719E
:100B60000090C8B22B4620220299FFF747FF12E0FF
:100B70004FF0010A0120AB4605EBDB71491001FB88
:100B800004710090C8B208F13001CAB22B46029934
:100B9000FFF734FF00BF601CC4B2B442C3DB05B032
:100BA000BDE8F08FF8B506460F4615461C4621E015
:100BB00004EBD4714910C1F18001B14202DA002680
:100BC0003819C7B2C4F14000B84204DA0020064622
:100BD0000746FFF7AFFE012000902A7823463946EA
:100BE0003046FFF70BFF204604EBD07106EB6101A6
:100BF000CEB26D1C28787E2802DC28782028D7DA2F
:100C0000F8BD08B501210C2000F068FD012108465F
:100C100000F064FD0121114800F075FB40F6E7404B
:100C2000ADF8000010208DF8030003208DF80200BD
:100C300069460B4800F096FA14E0000080812142DA
:100C400000802142900121420000214280010020C9
:100C5000385F0008AC6300089C690008000230009F
:100C6000000C01404FF6FF713D4800F031FBF020D1
:100C7000ADF8000010208DF8030003208DF802006D
:100C80006946384800F06EFAF021364800F017FB4C
:100C90000021AE20FFF7F7FD0021D520FFF7F3FD7F
:100CA00000215020FFF7EFFD0021A820FFF7EBFD0A
:100CB00000213F20FFF7E7FD0021D320FFF7E3FDF0
:100CC00000210846FFF7DFFD00214020FFF7DBFD94
:100CD00000218D20FFF7D7FD00211420FFF7D3FD61
:100CE00000212020FFF7CFFD00210220FFF7CBFDE0
:100CF0000021A120FFF7C7FD0021C020FFF7C3FDA1
:100D00000021DA20FFF7BFFD00211220FFF7BBFD15
:100D100000218120FFF7B7FD0021EF20FFF7B3FD91
:100D20000021D920FFF7AFFD0021F120FFF7ABFD37
:100D30000021DB20FFF7A7FD00213020FFF7A3FDF6
:100D40000021A420FFF79FFD0021A620FFF79BFDB7
:100D50000021AF20FFF797FDFFF7ECFD08BD000075
:100D6000000C01400008014000B587B001214FF49C
:100D7000017000F0B3FC4FF4004000F013FC0220BF
:100D8000ADF8040000208DF8070001A92E4800F0FE
:100D9000E9F92E4801F086FE002002908DF80C0043
:100DA0008DF80D004FF46020049000200590012084
:100DB0008DF8180002A9254801F09BFE0121234867
:100DC00001F0C3FE214801F0E2FE00BF1F4801F020
:100DD000E3FE0028FAD11D4801F0E8FE00BF1B48E1
:100DE00001F0E9FE0028FAD107B000BD10B50446B5
:100DF000072301222146154801F013FF0121134862
:100E000001F0E3FE00BF0221104802F04FF8002875
:100E1000F9D00E4801F06CFF10BD2DE9F0410746F6
:100E20000C460025002608E03846FFF7DFFF0544A2
:100E3000052000F04AF8701CC6B2A642F4DBB5FBF0
:100E4000F4F080B2BDE8F0810008014000240140C8
:100E500010B56FF0040000F0F8FE2E4800682E492F
:100E6000B0FBF1F02D4908700846007800EB400116
:100E7000C1EBC0104FF6FF7101EAC000284908809D
:100E800010BD0146254A12784A434FF0E0235A61CB
:100E900000229A611A46126942F001021A6100BFEB
:100EA0004FF0E022106900F001021AB100F4803224
:100EB000002AF5D04FF0E022126922F001024FF033
:100EC000E0231A6100229A6170470146144A128891
:100ED0004A434FF0E0235A6100229A611A46126990
:100EE00042F001021A6100BF4FF0E022106900F0E9
:100EF00001021AB100F48032002AF5D04FF0E0224E
:100F0000126922F001024FF0E0231A6100229A6177
:100F1000704700001C00002000127A003000002002
:100F200032000020014600BF704700BF494A1288C6
:100F300002F04002002AF9D0C2B2464B1B1D1A80B3
:100F4000704710B586B00446012144F2040000F059
:100F5000C5FB4FF40070ADF8140003208DF81600A7
:100F600018208DF8170005A93B4800F0FBF84FF456
:100F70008060ADF8140004208DF8170005A93648EC
:100F800000F0F0F825208DF8000003208DF8010016
:100F90008DF8020001208DF80300684600F00BFE7A
:100FA00001940020ADF80800ADF80A00ADF80C007F
:100FB000ADF810000C20ADF80E0001A9254800F096
:100FC00034FC012240F22551224800F0C6FC0121E8
:100FD000204800F0B6FC06B010BD10B540F2255117
:100FE0001C4800F09FFD10B31A4800F01BFDC4B26E
:100FF0001A48008800F40040C8B91848008800F476
:10100000804060B10A2C03D000201449088020E001
:101010001248008840F400401049088019E00D2C67
:1010200006D10E48008840F480400C49088010E04A
:101030000A480088C0F30D0009490C54074800888D
:10104000401C0649088008460088C72801DD0020AA
:10105000088010BD00380140000801403800002021
:10106000800500200948804709480047FEE7FEE761
:10107000FEE7FEE7FEE7FEE7FEE7FEE7FEE7FEE748
:1010800004480549054A064B70470000030700085D
:10109000ED000008A8060020A80C0020A8080020E9
:1010A000A808002010B50446CC48844208D101218C
:1010B000042000F02DFB0021042000F029FB46E075
:1010C000C748844208D10121082000F021FB0021FB
:1010D000082000F01DFB3AE0C248844208D10121FB
:1010E000102000F015FB0021102000F011FB2EE075
:1010F000BD48844208D10121202000F009FB0021D5
:10110000202000F005FB22E0B848844208D10121EC
:10111000402000F0FDFA0021402000F0F9FA16E02E
:10112000B348844208D10121802000F0F1FA002167
:10113000802000F0EDFA0AE0AE48844207D1012198
:10114000801500F0E5FA0021A01500F0E1FA10BDCD
:1011500010B50121084600F0DBFA0021012000F063
:10116000D7FA10BD2DE9F0410246002500260020E7
:1011700000230024002791F803C00CF00F0591F81C
:1011800003C00CF0100CBCF1000F03D091F802C0AA
:101190004CEA050591F800C0BCF1000F31D014688D
:1011A00000202BE04FF0010C0CFA00F3B1F800C066
:1011B0000CEA03069E4220D183004FF00F0C0CFA7C
:1011C00003F7BC4305FA03FC4CEA040491F803C09E
:1011D000BCF1280F06D14FF0010C0CFA00FCC2F84C
:1011E00014C00AE091F803C0BCF1480F05D14FF0DC
:1011F000010C0CFA00FCC2F810C0401C0828D1D326
:101200001460B1F800C0BCF1FF0F34DD5468002059
:101210002EE000F1080C4FF0010808FA0CF3B1F8C9
:1012200000C00CEA03069E4221D183004FF00F0C50
:101230000CFA03F7BC4305FA03FC4CEA040491F8EA
:1012400003C0BCF1280F05D100F1080C08FA0CF816
:10125000C2F8148091F803C0BCF1480F07D100F127
:10126000080C4FF0010808FA0CF8C2F81080401C76
:101270000828CED35460BDE8F0814FF6FF7101809D
:10128000022181700421C1707047024600209368DA
:101290000B400BB1012000E0002070470146886838
:1012A00080B2704702460020D3680B400BB101208A
:1012B00000E0002070470146C86880B270470161B5
:1012C0007047416170470AB1016100E041617047B8
:1012D000C16070474FF480320A438261816182614C
:1012E00082698269704702460020434B18684FF6B6
:1012F0008073184040EA021008433F4B1860704763
:101300003E49C8617047F0B50A4600230024002119
:10131000002500F00046B6F1004F02D1364EF169CB
:1013200001E0354E7168C0F3034583B200F4401606
:10133000B6F5401F08D121F070612F4E766826F077
:1013400070662D4F7E6012E000F48016B6F5801FA7
:1013500006D1032606FA05F4A14341F0706106E0C8
:10136000460D360103FA06F6B14341F0706122B131
:10137000460D360103FA06F6314300F00046B6F199
:10138000004F02D11C4EF16101E01B4E7160F0BDB7
:1013900030B500228B071C0F0F2303FA04F2164B03
:1013A00008338C1053F824309343134C08348D10B9
:1013B00044F8253023468C1053F824308C07240F32
:1013C00000FA04F423430C4C08348D1044F8253003
:1013D00030BD0A49DC310860704700000008014058
:1013E000000C0140001001400014014000180140B1
:1013F000001C01400020014000000140000020428C
:10140000DF48006840F00100DD4908600846406898
:10141000DC490840DA49486008460068DA49084073
:10142000D74908600846006820F480200860084614
:10143000406820F4FE0048604FF41F008860704749
:10144000CF49096821F48031CD4A116011460968FD
:1014500021F480211160B0F5803F03D0B0F5802FDA
:101460000ED106E0C649096841F48031C44A1160D2
:1014700007E0C349096841F4A021C14A116000E0B6
:1014800000BF00BF704710B50146002200230020B6
:101490004A11012A02D1BA4C236806E0022A02D17D
:1014A000B74C236A01E0B64C636A01F01F020124C5
:1014B00094401C400CB1012000E0002010BD38B564
:1014C000002000900024002500BF3120FFF7DBFF43
:1014D00005460098401C00900098B0F5A06F01D020
:1014E000002DF2D03120FFF7CEFF08B1012400E03B
:1014F0000024204638BD01460020A14A106820F093
:10150000F80040EAC10010607047A04908607047C9
:10151000024600209A4B586820F47C1042EA0103EE
:101520001843974B586070479849086670470146C2
:101530000020934A506820F0030008435060704731
:101540008F48406800F00C007047014600208C4A2C
:10155000506820F0F00008435060704701460020BA
:10156000874A506820F4E0600843506070470146A5
:101570000020834A506820F4605040EAC100506067
:10158000704729B17E4A527A02437D4B5A7204E079
:101590007B4A527A82437A4B5A7270477B49D831E0
:1015A0000860704701460020754A506820F44040AA
:1015B0000843506070470021714A20321170704A10
:1015C00082F82010012802D004280AD104E0012169
:1015D0006B4A2032117005E00521694A20321170F2
:1015E00000E000BF00BF7047694908607047644968
:1015F000096A0143624A11627047654944390860CB
:10160000704730B500210022002400235C4D6D6836
:1016100005F00C0121B1042905D0082923D105E0EA
:101620005C4D056022E05B4D05601FE0544D6D6828
:1016300005F47012524D6D6805F48034022505EBF7
:1016400092421CB9544D554305600BE04C4D6D68FA
:1016500005F400351DB1504D5543056002E04D4D78
:101660005543056002E04B4D056000BF00BF444D8F
:101670006D6805F0F0010909484D6B5C0568DD40B7
:1016800045603F4D6D6805F4E061090A434D6B5CB0
:101690004568DD4085603A4D6D6805F46051C90AC2
:1016A0003E4D6B5C4568DD40C560354D6D6805F4A9
:1016B0004041890B3A4D6B5CC568B5FBF3F505619C
:1016C00030BD29B12E4A526902432D4B5A6104E0C4
:1016D0002B4A526982432A4B5A61704729B1284AE2
:1016E00092690243264B9A6104E0254A926982433B
:1016F000234B9A61704729B1214AD2690243204B9A
:10170000DA6104E01E4AD26982431D4BDA617047F8
:1017100029B11B4AD2680243194BDA6004E0184A27
:10172000D2688243164BDA60704729B1144A1269B5
:101730000243134B1A6104E0114A12698243104BB1
:101740001A61704712494039086070470F49C864F0
:1017500070470B49C87170470948406A40F0807073
:1017600007494862704701460020054A92680A40CE
:101770000AB1012000E000207047014988727047DB
:10178000001002400000FFF8FFFFF6FE000042429A
:101790008004424200127A0000093D003A00002015
:1017A0004A00002010B50446FB48844209D10121BB
:1017B0008803FFF7ADFF00214FF48040FFF7A8FF3B
:1017C00032E0F648844209D101214804FFF7ADFF19
:1017D00000214FF40030FFF7A8FF25E0F0488442D5
:1017E00009D101218804FFF7A0FF00214FF48020D8
:1017F000FFF79BFF18E0EB48844209D10121C804A0
:10180000FFF793FF00214FF40020FFF78EFF0BE05E
:10181000E548844208D101210805FFF786FF002131
:101820004FF48010FFF781FF10BD2DE9F04786B01F
:1018300005460E460024A24600BFA1460027B089F7
:1018400000B100BF2F462C8A4CF6FF700440F08890
:1018500004432C82AC894EF6F3100440B0883189E1
:101860000843718908430443AC81AC8A4FF6FF40BA
:101870000440B0890443AC8201A8FFF7C2FEC64809
:10188000874202D1DDF810A001E0DDF80CA0A889A4
:1018900000F4004040B10AEBCA0000EB0A103168C6
:1018A0004900B0FBF1F807E00AEBCA0000EB0A10B0
:1018B00031688900B0FBF1F86420B8FBF0F0040156
:1018C0002009642101FB1089A88900F4004040B17F
:1018D000322000EBC900B0FBF1F000F00700044338
:1018E00008E0322000EB09106421B0FBF1F000F0B9
:1018F0000F0004432C8106B0BDE8F0874FF4165169
:10190000016000218180C18001810C214181002181
:101910008181704710B502460020108A4FF2FF0304
:1019200018400B884C8823438C882343CC8823435E
:101930001843108210BD0021018041808180C18048
:10194000704721B1828942F40052828104E0828989
:101950004DF6FF731A4082817047F0B503460024AC
:1019600000260025002040F66A17B94200D100BFCA
:101970001846C1F3421401F01F06012707FA06F5C5
:10198000012C01D10C3004E0022C01D1103000E018
:1019900014301AB107682F43076002E00768AF43AD
:1019A0000760F0BD1AB1838A0B43838202E0838A09
:1019B0008B4383827047028A4FF6F0731A4002828B
:1019C000028A0A430282704782894FF2FF731A40EB
:1019D000828182890A438281704721B1828942F0E3
:1019E0000202828104E082894FF6FD731A408281EF
:1019F0007047028A4FF6DF731A400282028A0A4356
:101A00000282704721B1028A42F48042028204E0DD
:101A1000028A4BF6FF731A4002827047C1F3080234
:101A20008280704701468888C0F30800704781892A
:101A300041F0010181817047028BD2B20283028B97
:101A400042EA012202837047028B02F47F42028342
:101A5000028B0A430283704721B1828A42F020023E
:101A6000828204E0828A4FF6DF731A4082827047D6
:101A700021B1828A42F01002828204E0828A4FF60B
:101A8000EF731A408282704721B1828A42F00802C5
:101A9000828204E0828A4FF6F7731A40828270478E
:101AA00021B1828942F40042828103E08289C2F33B
:101AB0000E028281704721B1828A42F400628282E2
:101AC00004E0828A4FF2FF731A4082827047828A52
:101AD0004FF6FB731A408282828A0A4382827047E1
:101AE00021B1828A42F00202828204E0828A4FF6A9
:101AF000FD731A408282704702460020B1F5007FD4
:101B000000D100BF13880B400BB1012000E0002082
:101B1000704701F40072B2F5007F00D100BFCA43E4
:101B20000280704770B50246002400230025002083
:101B300040F66A16B14200D100BFC1F3421501F070
:101B40001F03012606FA03F3012D02D196893340C3
:101B500006E0022D02D1168A334001E0968A334016
:101B60000C12012606FA04F41688344013B10CB1A5
:101B7000012000E0002070BD10B50022002340F6D7
:101B80006A14A14200D100BF0A1201249440A3B2FA
:101B9000DC43048010BD00000038014000440040D8
:101BA00000480040004C00400050004031490143D3
:101BB000314A1160704770B5002100230F22C478AC
:101BC00004B32D4C246804F4E064C4F5E064210AF5
:101BD000C1F10403CA40447804FA03F18478144044
:101BE00021430901254C0678A155047804F01F050E
:101BF0000124AC4005786D11AD0005F1E025C5F874
:101C0000004109E0047804F01F050124AC401C4D9C
:101C10000678761145F8264070BD1A4A0A400243FC
:101C2000154B1B1F1A60704739B1134A121D1268F9
:101C30000243114B1B1D1A6006E00F4A121D126869
:101C400082430D4B1B1D1A607047042808D14FF0CA
:101C5000E021096941F004014FF0E022116107E041
:101C60004FF0E021096921F004014FF0E0221161F9
:101C7000704700000000FA050CED00E000E400E011
:101C800080E100E080FFFF1F10B50446FE4884425B
:101C900008D10121C014FFF73BFD0021E014FFF73C
:101CA00037FDC4E0B4F1804F08D101210846FFF7A9
:101CB0003CFD00210120FFF738FDB8E0F3488442E5
:101CC00008D101210220FFF730FD00210220FFF79B
:101CD0002CFDACE0EE48844208D101210420FFF73E
:101CE00024FD00210420FFF720FDA0E0E948844204
:101CF00008D101210820FFF718FD00210820FFF777
:101D000014FD94E0E448844208D101211020FFF73B
:101D10000CFD00211020FFF708FD88E0DF48844219
:101D200008D101212020FFF700FD00212020FFF72E
:101D3000FCFC7CE0DA48844208D101214014FFF722
:101D4000E7FC00216014FFF7E3FC70E0D548844213
:101D500009D10121C804FFF7DBFC00214FF400206A
:101D6000FFF7D6FC63E0D048844209D10121080581
:101D7000FFF7CEFC00214FF48010FFF7C9FC56E0BE
:101D8000CA48844209D101214805FFF7C1FC00215E
:101D90004FF40010FFF7BCFC49E0C548844208D16D
:101DA00001214020FFF7C1FC00214020FFF7BDFCCE
:101DB0003DE0C048844208D101218020FFF7B5FCF6
:101DC00000218020FFF7B1FC31E0BB48844208D1FC
:101DD00001218015FFF7A9FC0021A015FFF7A5FC44
:101DE00025E0B648844209D101210804FFF790FCA0
:101DF00000214FF48030FFF78BFC18E0B04884429C
:101E000009D101214804FFF783FC00214FF4003081
:101E1000FFF77EFC0BE0AB48844208D10121880427
:101E2000FFF776FC00214FF48020FFF771FC10BD16
:101E300000220288944B98420ED0994B98420BD0C6
:101E4000B0F1804F08D0914B984205D0904B98420A
:101E500002D0904B984204D14FF68F731A404B88B2
:101E60001A438D4B984207D08C4B984204D04FF6C2
:101E7000FF431A40CB881A4302808B8883850B88E6
:101E80000385814B98420BD0854B984208D08B4BF1
:101E9000984205D08A4B984202D08A4B984201D191
:101EA0000B7A038601238382704770B500240022D9
:101EB0000023058C4FF6FE7635400584028C83881E
:101EC000048B4FF68F752C40B51E2C400D882C438B
:101ED000751E2A400D892A434D882A436A4DA8421F
:101EE0000BD06F4DA84208D0744DA84205D0744D58
:101EF000A84202D0734DA84213D14FF6F7752A407D
:101F00004D892A434FF6FB752A408D882A434FF6A8
:101F1000FF652B404FF6FF552B408D892B43CD8914
:101F20002B4383800483CD888586028470BD70B581
:101F3000002400220023058C4FF6EF7635400584FF
:101F4000028C8388048B48F6FF752C404FF6FF45C2
:101F50002C400D884FF6FF7606EA05252C434FF6F8
:101F6000DF752A400D8906EA05152A434D8806EAE1
:101F700005152A43444DA84202D0494DA8421DD11F
:101F80004FF67F752A404D894FF6FF7606EA051514
:101F90002A434FF6BF752A408D8806EA05152A4365
:101FA0004FF6FF352B404FF2FF752B408D8906EA27
:101FB00085052B43CD8906EA85052B438380048361
:101FC000CD880587028470BD70B5002400220023EF
:101FD000058C4FF6FF6635400584028C8388848B20
:101FE0004FF68F752C404FF6FC752C400D882C4316
:101FF0004FF6FF552A400D894FF6FF7606EA052574
:102000002A434D8806EA05252A431F4DA84202D0DF
:10201000234DA8421DD14FF2FF752A404D894FF63E
:10202000FF7606EA05252A434FF6FF352A408D88BC
:1020300006EA05252A434EF6FF752B404DF6FF753F
:102040002B408D8906EA05152B43CD8906EA051537
:102050002B4383808483CD888587028470BD70B5CF
:10206000002200230024058C4EF6FF7635400584BF
:10207000038C8488828B48F6FF752A404FF6FF4513
:102080002A400D8820E00000002C014000040040A0
:1020900000080040000C0040001000400014004008
:1020A00000340140004C0140005001400054014008
:1020B00000180040001C004000200040004001408B
:1020C00000440140004801404FF6FF7606EA05252E
:1020D0002A434DF6FF752B400D8906EA05352B4343
:1020E0004D8806EA05352B43FA4DA84202D0FA4D39
:1020F000A84208D14BF6FF752C408D894FF6FF762C
:1021000006EA85152C4384808283CD88A0F8405050
:10211000038470BD828B4FF2FF331A408283828B1F
:102120004FF6FF7303EA01231A4382837047F0B529
:102130000C461546002200210026078C4EF6FF7C37
:1021400007EA0C070784828B018C4FF6FF7707EABA
:10215000043640F6FF473A404FF6FF7707EA052777
:102160003A434FF6FF7707EA03373A43D94FB8426D
:102170000ED0D94FB8420BD0B0F1804F08D0D74F16
:10218000B84205D0D64FB84202D0D64FB84206D199
:102190004DF6FF77394046F48057394305E047F65E
:1021A000FF57394044F48057394382830184F0BD9E
:1021B000828B4FF6F3731A408283828B0A438283A9
:1021C0007047F0B50C461546002200210026078C0A
:1021D0004FF6FF6C07EA0C070784828B018C4FF6E1
:1021E000FF7707EA04264FF60C773A404FF6FF7761
:1021F00007EA03172F433A43B64FB8420ED0B64F03
:10220000B8420BD0B0F1804F08D0B44FB84205D0DF
:10221000B34FB84202D0B34FB84206D14FF6FF5782
:10222000394046F48077394305E04FF2FF57394093
:1022300044F48077394382830184F0BD028B4FF2EE
:10224000FF331A400283028B4FF6FF7303EA012328
:102250001A4302837047F0B50C4615460022002150
:102260000026078C4FF6EF7C07EA0C070784028BE9
:10227000018C4FF6FF7707EA041640F6FF473A4015
:102280004FF6FF7707EA03373A434FF6FF7707EA3F
:1022900005273A438F4FB8420ED08F4FB8420BD02C
:1022A000B0F1804F08D08D4FB84205D08C4FB84266
:1022B00002D08C4FB84206D14FF6DF77394046F056
:1022C0001007394305E04FF65F77394044F01007B7
:1022D000394302830184F0BD028B4FF6F3731A4039
:1022E0000283028B0A4302837047F0B50C46154601
:1022F00000220021068C4FF6FE773E400684028BBA
:10230000018C4FF60C7632407E1C06EA03162E43F3
:102310003243704EB0420ED06F4EB0420BD0B0F18F
:10232000804F08D06D4EB04205D06D4EB04202D005
:102330006C4EB04206D14FF6FD76314044F00106B6
:10234000314305E04FF6F576314044F00106314364
:1023500002830184F0BD70B505460C465D48854298
:102360000ED05D4885420BD0B5F1804F08D05B4858
:10237000854205D05A48854202D05A48854200D14C
:1023800000E000BF208850B92389A28861882846D0
:10239000FFF7ABFFE1882846FFF79EFF25E0208886
:1023A00004280AD12389A28861882846FFF753FFB1
:1023B000E1882846FFF742FF17E0208808280AD165
:1023C0002389A28861882846FFF7FBFEE18828461A
:1023D000FFF7EEFE09E02389A28861882846FFF70F
:1023E000A6FEE1882846FFF795FE70BD2DE9F04175
:1023F00005460C4600260127608808B9022600E041
:102400000026A088012801D1022700E001272088AA
:10241000A0B92389A28861882846FFF766FFE18872
:102420002846FFF759FF23893A4631462846FFF7E9
:1024300012FFE1882846FFF701FF13E02389A288F5
:1024400061882846FFF707FFE1882846FFF7F6FE78
:1024500023893A4631462846FFF747FFE188284658
:10246000FFF73AFFBDE8F0810A884B881A438B8852
:102470001A43CB881A430B891A434B891A438B8919
:102480001A43A0F8442070474FF6FF718180002165
:102490000180C1804180017270470021018041802C
:1024A0008180C180018141818181C181704700218A
:1024B00001804180012181800021C180018170471C
:1024C0000021018041808180C18001814181818121
:1024D00070470000002C014000340140000400401F
:1024E00000080040000C004021B1028842F00102C7
:1024F000028004E002884FF6FE731A4002807047A3
:1025000031B1B0F8442042F40042A0F8442005E084
:10251000B0F84420C2F30E02A0F8442070471AB16C
:1025200083890B43838102E083898B4383817047D6
:102530008182704741EA0203A0F8483070471AB11F
:1025400083890B43838102E083898B4383817047B6
:1025500001894FF6F8721140018170470A46002147
:1025600001894FF68F73194011430181704730B5CF
:1025700004460D4629462046FFF7F0FF208940F02B
:102580000700208130BD2DE9F04104460D46164676
:102590001F46602D06D13B46012231462046FFF7FB
:1025A0005AFE05E03B46012231462046FFF79DFEDC
:1025B00029462046FFF7D2FF208940F007002081FE
:1025C000BDE8F08130B50C4600210189C9B24FF653
:1025D000FF7505EA0325154325432943018130BDD5
:1025E0002DE9F04105460E4617469846002443461D
:1025F0003A4631462846FFF7E5FF2C894FF6F8703A
:10260000044044F007044FF68F70044044F0700417
:102610002C81BDE8F081F0B504460D4616461F46F4
:102620003B46324629462046FFF7CCFF208940F43E
:1026300080402081F0BD0185828270470A460021DA
:1026400001884FF68F731940114301807047F0B530
:102650000C4615461E460021002200230189028BEC
:10266000038C4FF6F877394021434FF6FC473A4048
:1026700040F201173A434FF6DD773B404FF6FF77C4
:1026800007EA06172F433B43018102830384F0BD11
:102690000A460021018B4FF68F73194011430183C5
:1026A00070470A460021018B48F6FF7319404FF628
:1026B000FF7303EA02231943018370470A4600218E
:1026C000818B4FF68F7319401143818370470A46FF
:1026D0000021818B48F6FF7319404FF6FF7303EA20
:1026E000022319438183704721B1028842F080029E
:1026F000028004E002884FF67F731A400280704720
:1027000021B1828842F00402828004E082884FF680
:10271000FB731A408280704721B1828842F0080220
:10272000828004E082884FF6F7731A4082807047F7
:1027300021B1828842F00102828004E082884FF653
:10274000FE731A40828070470A460021018B4FF6C3
:10275000F77319401143018370470A460021018B2A
:102760004FF2FF7319404FF6FF7303EA0223194338
:10277000018370470A460021818B4FF6F773194099
:102780001143818370470A460021818B4FF2FF730A
:1027900019404FF6FF7303EA022319438183704700
:1027A0000A460021018B4FF6FB7319401143018348
:1027B00070470A460021018B4FF6FF3319404FF650
:1027C000FF7303EA02231943018370470A4600217D
:1027D000818B4FF6FB7319401143818370470A4682
:1027E0000021818B4FF6FF3319404FF6FF7303EA48
:1027F00002231943818370470A460021018B4FF65B
:102800007F7319401143018370470A460021018BF1
:10281000C1F30E014FF6FF7303EA0223194301834C
:1028200070470A460021818B4FF67F731940114390
:10283000818370470A460021818BC1F30E014FF658
:10284000FF7303EA02231943818370470A4600217C
:10285000018C4FF6FD7319401143018470470A46FD
:102860000021018C4FF6F773194011430184704722
:102870000A460021018C4FF6DF7319404FF6FF73B3
:1028800003EA02131943018470470A460021018CB0
:102890004FF67F7319404FF6FF7303EA0213194393
:1028A000018470470A460021018C4FF6FF531940FE
:1028B0004FF6FF7303EA02231943018470470A4667
:1028C0000021018C4FF2FF7319404FF6FF7303EAAA
:1028D00002231943018470470A460021018C4DF6FA
:1028E000FF7319404FF6FF7303EA02331943018463
:1028F000704730B5002301248C40A3B2048C9C4364
:102900000484048C02FA01F5ADB22C43048430BD7A
:1029100030B5002304248C40A3B2048C9C4304846F
:10292000048C02FA01F5ADB22C43048430BD70B5BD
:102930000346002000241846183001258D40ACB213
:102940001D8CA5431D8409B1082909D100EB610044
:10295000056825F0700505600568154305600EE003
:102960000D1FC5F34E052844056825F4E0450560B4
:1029700005684FF6FF7606EA02263543056070BD0E
:1029800021B1028842F00202028004E002884FF680
:10299000FD731A400280704721B1028842F00402A0
:1029A000028004E002884FF6FB731A4002807047F1
:1029B00021B1828842F08002828004E082884FF652
:1029C0007F731A408280704702884FF6F7731A406F
:1029D000028002880A430280704782884FF68F7314
:1029E0001A40828082880A438280704702894FF6AB
:1029F000F8731A40028102890A43028170470289F2
:102A00004FF67F731A40028102890A4302817047A0
:102A10008184704781857047818670470187704740
:102A200081877047A0F84010704702884FF6FF4337
:102A30001A40028002880A43028070470146888E4D
:102A400070470146088F70470146888F70470146DE
:102A5000B1F8400070470146888C70470146088DE8
:102A6000704702460020138A0B400BB1012000E0A2
:102A700000207047CA430282704730B502460020EA
:102A800000230024158A05EA0103958905EA01045B
:102A900013B10CB1012000E0002030BDCA43028216
:102AA0007047000010B50446FA48844208D101215D
:102AB0004015FEF72DFE00216015FEF729FE17E0F8
:102AC000F548844208D101210015FEF721FE0021BE
:102AD0002015FEF71DFE0BE0F048844208D10121CD
:102AE000C803FEF715FE00214FF40040FEF710FE6C
:102AF00010BD30B50246002000235068E84C20404D
:102B00000D790C6844EA0524204350609068E54C38
:102B10002040D1E902542C434D7944EA4504204336
:102B20009060D06A20F470000C7C641EE4B22343F1
:102B300040EA0350D06230BD002101600171417153
:102B40008160C16001210174704721B1826842F047
:102B50000102826003E0826822F001028260704715
:102B600021B1826842F48072826003E0826822F4BC
:102B700080728260704710B50023CBB21AB14468EE
:102B80001C43446002E044689C43446010BD81687B
:102B900041F0080181607047014600208A6802F018
:102BA00008020AB1012000E000207047816841F06E
:102BB000040181607047014600208A6802F0040227
:102BC0000AB1012000E00020704721B1826842F480
:102BD000A002826003E0826822F4A0028260704753
:102BE000014600208A6802F480020AB1012000E058
:102BF0000020704710B50A4600210023416821F4E7
:102C00006041531E41EA4331416010BD21B1426829
:102C100042F40062426003E0426822F400624260D3
:102C20007047F0B504460D4600200021092D11DD46
:102C3000E068A5F10A0606EB4607072606FA07F143
:102C40008843A5F10A0606EB460603FA06F1084397
:102C5000E0600CE0206905EB4507072606FA07F15E
:102C6000884305EB450603FA06F108432061072A6D
:102C70000FDA606B561E06EB86071F2606FA07F171
:102C80008843561E06EB860605FA06F10843606384
:102C900022E00D2A0FDA206BD61F06EB86071F26CF
:102CA00006FA07F18843D61F06EB860605FA06F1F9
:102CB0000843206310E0E06AA2F10D0606EB8607E8
:102CC0001F2606FA07F18843A2F10D0606EB8606D9
:102CD00005FA06F10843E062F0BD21B1826842F4D2
:102CE0008012826003E0826822F480128260704762
:102CF0000146C86C80B2704766484C300068704727
:102D000021B1426842F48062426003E0426822F4EA
:102D100080624260704721B1426842F48052426052
:102D200003E0426822F48052426070470A46002164
:102D3000816821F4E04111438160704721B18268CC
:102D400042F40042826003E0826822F40042826022
:102D5000704721B1826842F40212826003E0826807
:102D600022F4021282607047014600208A6802F451
:102D700000120AB1012000E000207047F0B50446BF
:102D80001546002000220026092911DDE068A1F186
:102D90000A0707EB470C072707FA0CF29043A1F14B
:102DA0000A0707EB470703FA07F21043E0600CE05D
:102DB000206901EB410C072707FA0CF2904301EB65
:102DC000410703FA07F210432061A06BC0F30156DC
:102DD000EF1C06F1010CA7EB0C0707EB870C1F2774
:102DE00007FA0CF29043EF1C06F1010CA7EB0C075D
:102DF00007EB870701FA07F21043A063F0BD10B597
:102E00000A4600210023816B21F44011531E41EA40
:102E10000351816310BD08B5002300930090009B0F
:102E20000B440093009B1A6008BD08B502460020C1
:102E30000090009201F12800009B18440090009837
:102E4000006880B208BD0A4600214168164B19404F
:102E50001143416070474162826270470A46002117
:102E6000416821F01F0111434160704740B1094999
:102E70000831096841F40001064A0832116007E090
:102E800004490831096821F40001024A083211603E
:102E9000704700000024014000280140003C014030
:102EA000FFFEF0FFFDF7F1FFFFFD3FFF02460020B0
:102EB00013680B400BB1012000E000207047CA43AB
:102EC0000260704770B502460020002300240B12F8
:102ED0005568CEB205EA060415681D4015B10CB15F
:102EE000012000E0002070BD00220A12D3430360DD
:102EF0007047000010B58CB004461E230BAA03A92E
:102F0000204600F0AFFE0090009810B101200CB0F8
:102F100010BD9DF82C00044400200B900EE04048AA
:102F20009DF82C2050F8221003A800F003FE00B9F1
:102F300008E09DF82C00401CC0B20B909DF82C00BE
:102F40000728ECD300BF9DF82C00072863D2DFE8E8
:102F500000F004053C5E6564630000BF31A001F031
:102F60007FF831A001F07CF83FA001F079F84EA085
:102F700001F076F85CA001F073F86BA001F070F836
:102F800079A001F06DF886A001F06AF88BA001F03D
:102F900067F890A001F064F894A001F061F899A09E
:102FA00001F05EF89EA001F05BF8A4A001F058F8D3
:102FB000B0A001F055F8BDA001F052F8C8A001F092
:102FC0004FF8D4A001F04CF89AE216A001F048F8AE
:102FD000E0A001F045F800200B900EE0ED480068FD
:102FE0009DF82C2000EBC2004168EBA001F038F8FE
:102FF0009DF82C00401CC0B20B90E648007D9DF867
:103000002C108842EADC07A001F02AF878E205A03B
:1030100001F026F8C4E171E245E219E2ECE10000BA
:10302000500000200D0A00002D2D2D2D2D2D2D2DB1
:103030002D2D2D2D2D2D2D2D2D2D2D2D2D2D2D2DC0
:1030400055534D4152542056332E312D2D2D2D2DBB
:103050002D2D2D2D2D2D2D2D2D2D2D2D2D2D2D2DA0
:103060002D2D2D200D0A00002020202055534D41EC
:103070005254CAC7D3C9414C49454E54454BBFAAC7
:10308000B7A2B5C4D2BBB8F6C1E9C7C9B5C4B4AE1E
:10309000BFDAB5F7CAD4BBA5BDBBD7E9BCFE2CCD02
:1030A000A8B9FD200D0A0000CBFC2CC4E3BFC9D297
:1030B000D4CDA8B9FDB4AEBFDAD6FACAD6B5F7D327
:1030C000C3B3CCD0F2C0EFC3E6B5C4C8CEBACEBA53
:1030D000AFCAFD2CB2A2D6B4D0D02ED2F2B4CB2C33
:1030E000C4E3BFC90D0A0000D2D4CBE6D2E2B8FCDB
:1030F000B8C4BAAFCAFDB5C4CAE4C8EBB2CECAFD03
:1031000028D6A7B3D6CAFDD7D62831302F3136BD41
:10311000F8D6C629A1A2D7D6B7FBB4AEA1A2BAAF42
:10312000CAFDC8EB0D0A0000BFDAB5D8D6B7B5C8DE
:10313000D7F7CEAAB2CECAFD292CB5A5B8F6BAAF3C
:10314000CAFDD7EEB6E0D6A7B3D63130B8F6CAE49A
:10315000C8EBB2CECAFD2CB2A2D6A7B3D6BAAFCABC
:10316000FDB7B5200D0A0000BBD8D6B5CFD4CABE76
:103170002ED0C2D4F6B2CECAFDCFD4CABEBDF8D6C8
:10318000C6C9E8D6C3B9A6C4DC2CD0C2D4F6BDF8F3
:10319000D6C6D7AABBBBB9A6C4DC2E0D0A00000058
:1031A000BCBCCAF5D6A7B3D63A7777772E6F7065D1
:1031B0006E6564762E636F6D0D0A000055534D41A8
:1031C0005254D3D037B8F6CFB5CDB3C3FCC1EE3A25
:1031D0000D0A00003F3A202020202020BBF1C8A18A
:1031E000B0EFD6FAD0C5CFA20D0A000068656C70AA
:1031F0003A202020BBF1C8A1B0EFD6FAD0C5CFA2AB
:103200000D0A00006C6973743A202020BFC9D3C333
:10321000B5C4BAAFCAFDC1D0B1ED0D0A0A000000B5
:1032200069643A2020202020BFC9D3C3BAAFCAFDA9
:10323000B5C44944C1D0B1ED0D0A0A006865783AB9
:1032400020202020B2CECAFD3136BDF8D6C6CFD45C
:10325000CABE2CBAF3B8FABFD5B8F12BCAFDD7D67F
:10326000BCB4D6B4D0D0BDF8D6C6D7AABBBB0D0A65
:103270000A0000006465633A20202020B2CECAFD17
:103280003130BDF8D6C6CFD4CABE2CBAF3B8FABF17
:10329000D5B8F12BCAFDD7D6BCB4D6B4D0D0BDF8C2
:1032A000D6C6D7AABBBB0D0A0A00000072756E74A1
:1032B000696D653A312CBFAAC6F4BAAFCAFDD4CB4A
:1032C000D0D0BCC6CAB13B302CB9D8B1D5BAAFCA80
:1032D000FDD4CBD0D0BCC6CAB13B0D0A0A00000059
:1032E000C7EBB0B4D5D5B3CCD0F2B1E0D0B4B8F11F
:1032F000CABDCAE4C8EBBAAFCAFDC3FBBCB0B2CE0C
:10330000CAFDB2A2D2D4BBD8B3B5BCFCBDE1CAF8E9
:103310002E0D0A002D2D2D2D2D2D2D2D2D2D2D2D4C
:103320002D2D2D2D2D2D2D2D2D2D2D2D2D2D414C9A
:1033300049454E54454B2D2D2D2D2D2D2D2D2D2D0B
:103340002D2D2D2D2D2D2D2D2D2D2D2D2D2D2D20BA
:103350000D0A00002D2D2D2D2D2D2D2D2D2D2D2D3A
:103360002D2D2D2D2D2D2D2D2D2D2D2D2DBAAFCAE1
:10337000FDC7E5B5A52D2D2D2D2D2D2D2D2D2D2D5B
:103380002D2D2D2D2D2D2D2D2D2D2D2D2D2D2D2D6D
:10339000200D0A008C00002025730D0A000000009B
:1033A000F1A000F05DFE00200B901AE0FE490968D4
:1033B0009DF82C2001EBC20101AB02AA486803A9C9
:1033C00000F076FCF84800689DF82C1050F8312089
:1033D00003A9F6A000F044FE9DF82C00401CC0B2EA
:1033E0000B90F148007D9DF82C108842DEDCAFF296
:1033F000CC3000F035FE83E0AFF2D83000F030FE84
:103400000BAA03A9204600F02FFD9DF82C00C8B997
:10341000694603A800F0C1FB0B909DF82C0020B971
:10342000E7A0009900F01CFE0EE09DF82C00042897
:1034300001D002206BE5E5A000F012FE0120DA4980
:10344000C87501E0022062E5DFA000F009FE57E048
:10345000DDA000F005FE0BAA03A9204600F004FD44
:103460009DF82C00C8B9694603A800F096FB0B90A4
:103470009DF82C0020B9DAA0009900F0F1FD0EE0D3
:103480009DF82C00042801D0022040E5D7A000F0D0
:10349000E7FD0020C449C87501E0022037E5CAA055
:1034A00000F0DEFD2CE0C8A000F0DAFD0BAA03A9B5
:1034B000204600F0D9FC9DF82C00C8B9694603A845
:1034C00000F06BFB0B909DF82C0078B9B649009882
:1034D00081F8EC00084690F8EC0018B1C8A000F0A4
:1034E000BFFD07E0CDA000F0BBFD03E002200EE52C
:1034F00002200CE5B4A000F0B3FD01E0012006E5D8
:1035000000BF002003E5CC48008820F00100CA4934
:1035100008804FF6FF70C8491C3108800020C6495A
:1035200014310880A049C1F8F0007047C2480088F3
:1035300000F0010040B19C48D0F8F0004FF6FF7158
:1035400008449949C1F8F0009748D0F8F000BA490A
:103550001431098808449449C1F8F0000846D0F8AD
:10356000F000704710B5B448008800F0010058B171
:103570008D49086980470020AF49143108804FF415
:103580007A70AD491C310880AB48008820F00100FA
:10359000A949088010BD7FB505460C4601210420CD
:1035A000FEF7A9F8ADF80850ADF804400020ADF8DA
:1035B0000A00ADF8060001A99F481038FEF738FC54
:1035C000012241219C481038FEF7A9FF1E208DF8EA
:1035D000000003208DF801008DF8020001208DF815
:1035E00003006846FEF7E7FA012193481038FEF71A
:1035F0007BFF7FBD10B5044604EBC40000EB041054
:103600000122C2EB800081B24FF47A70FFF7C3FF52
:1036100001206549C87510BD30B595B0054613AB9E
:1036200012AA09A9284600F043FB044614B120461B
:1036300015B030BD0020149026E05B4909689DF864
:10364000502001EBC20113AB11AA486801A900F098
:103650002FFB04460CB12046EAE709A901A800F0B7
:1036600069FA60B99DF844009DF84810884201DD70
:103670000220DDE79DF850004B4988750AE09DF86F
:103680005000401CC0B214904748007D9DF8501077
:103690008842D2DC00BF4448007D9DF8501088422B
:1036A00001D10420C4E714A9284600F04EFC0446CA
:1036B0000CB12046BCE79DF850003B4948750020FE
:1036C000B6E72DE9F0419AB000263748847D007DA9
:1036D000A04202DC1AB0BDE8F0813349096801EB71
:1036E000C40106AB07AA486808A900F0E1FA08A9D6
:1036F00052A000F0B5FC0025BAE02B48008B012158
:10370000A9400840D8B122214EA000F0A9FC2846CB
:1037100000F00EFC24492431471839464AA000F035
:103720009FFC222147A000F09BFC284600F000FCF3
:103730001D492431084410A941F825008EE028468F
:1037400000F0F6FB18492431085810A941F825006B
:103750001548C07D30B910A850F825103BA000F0E6
:103760007FFC7BE074E000002D2D2D2D2D2D2D2DC7
:103770002D2D2D2D2D2D2D2D2D2D2D2D2D2D2D2D79
:103780002DBAAFCAFD204944202D2D2D2D2D2D2DD4
:103790002D2D2D2D2D2D2D2D2D2D2D2D2D2D2D2D59
:1037A0002D2D2D2D200D0A008C0000202573206961
:1037B000642069733A0D0A3058253038580D0A00D4
:1037C0004845583A305825580D0A00003136BDF8A2
:1037D000D6C6B2CECAFDCFD4CABE210D0A000000A3
:1037E0004445433A256C750D0A0000003130BDF8A0
:1037F000D6C6B2CECAFDCFD4CABE210D0A00000083
:1038000052756E2054696D652043616C63756C61FF
:1038100074696F6E204F4E0D0A00000052756E20C5
:1038200054696D652043616C63756C6174696F6E7A
:10383000204F46460D0A0000100800400D0A25736F
:10384000280000002563000025730000256C75002A
:1038500010A850F8251095A000F002FC9DF81C005F
:10386000401EA84202D093A000F0FAFB681CC5B22B
:103870009DF81C008542FFF640AF8FA000F0F0FBE2
:10388000FFF741FE8D48407D0B280DD2DFE800F0A8
:10389000060D151E27323F4E5F7287008749096863
:1038A00051F834008047064690E0844A126852F886
:1038B000341010988847064688E0804B1B6853F800
:1038C0003420DDE91001904706467FE07B4F3F68DA
:1038D00057F8343010A807C89847064676E0DFF856
:1038E000DCC1DCF800C05CF8347010A80FC8B84721
:1038F00006466BE01498DFF8C4C10090DCF800C005
:103900005CF8347010A80FC8B84706465EE0DDE9E1
:103910001401DFF8A8C1CDE90001DCF800C05CF8B3
:10392000347010A80FC8B84706464FE0DDE91412FE
:103930001698DFF888C1CDE900120290DCF800C0CB
:103940005CF8347010A80FC8B84706463EE0DDE9C1
:103950001423DDE91610DFF864C1CDE90023CDE9B9
:103960000210DCF800C05CF8347010A80FC8B8472B
:1039700006462BE0DDE9163218991598CDE902329A
:10398000049101901498DFF834C10090DCF800C075
:103990005CF8347010A80FC8B847064616E0DDE999
:1039A0001623DDE91810CDE90223CDE90410DDE985
:1039B0001401DFF808C1CDE90001DCF800C05CF8B3
:1039C000347010A80FC8B847064600BF00BFFFF705
:1039D000ADFD9DF8180001280CD13848C07D20B9F4
:1039E000314637A000F03CFB07E0314636A000F03E
:1039F00037FB02E033A000F033FB304890F8EC00D6
:103A000088B12E48D0F8F0000A21B0FBF1F201FB9A
:103A100012072A48D0F8F000B0FBF1F83A464146C8
:103A20002CA000F01DFB00BF54E670B531480088A3
:103A300000F40040002833D02E48057800202E499D
:103A400048551E4881682C48884704461CB91B49C4
:103A5000C868804721E02848FFF74CFA0546012D49
:103A600000D02C46CCB1012C06D0022C08D0032C5F
:103A70000AD0042C10D10BE020A000F0F1FA0BE0EA
:103A800021A000F0EDFA07E022A000F0E9FA03E03F
:103A900023A000F0E5FA00BF00BF00201549088010
:103AA00070BD01460868704701607047305825585E
:103AB000000000002C000000290000008C00002005
:103AC0003D256C753B0D0A003D305825583B0D0ACD
:103AD0000000000046756E6374696F6E2052756E4B
:103AE0002054696D653A25642E2531646D730D0A85
:103AF000000000003800002080050020BAAFCAFD99
:103B0000B4EDCEF3210D0A00B2CECAFDB4EDCEF372
:103B1000210D0A00B2CECAFDCCABB6E0210D0A00E1
:103B2000CEB4D5D2B5BDC6A5C5E4B5C4BAAFCAFD3D
:103B3000210D0A0002460AE010780B78984201D065
:103B400001207047107800B902E0521C491CF3E7CD
:103B500000BF0020F5E706E002780A70027802B99B
:103B600002E0401C491CF7E700BF704701460020F7
:103B700005E00A7802B903E0421CD0B2491CF8E71C
:103B800000BF704710B50246012000E050430B1EF5
:103B9000A1F10104E1B2F9D110BD2DE9F0430746CE
:103BA0000E4600254FF00A083C46002030601FE01A
:103BB0002078392802DC207830280ADA2078462854
:103BC00002DC2078412804DA2078582809D1012D18
:103BD00007D12078412801DB4FF01008681CC5B2DE
:103BE00005E0207800B904E00120BDE8F083641C02
:103BF000DEE700BF3C46B8F1100F0FD1032D01DA0C
:103C00000220F2E72078302806D16078582803D1C6
:103C1000A41CA81EC5B204E00320E6E70DB90420E9
:103C2000E3E71BE00DB1681EC5B22078392806DC39
:103C30002078302803DB2078A0F1300902E02078DA
:103C4000A0F1370929464046FFF79CFF316809FB80
:103C500000103060641C207800B900E0E2E700BF8B
:103C60000020C2E710B50446002010700BE0207859
:103C70000870641C491C1078401C10701078984221
:103C800001DB012010BD2078202802D020780028F8
:103C9000EDD10020087000BFF4E70146491C00E0A8
:103CA000491C0878202801D10029F9D108787047EB
:103CB0002DE9FF4F85B080468946002700200490FB
:103CC0000390012002904FF0000B002544461DE0B8
:103CD0002078202816D005F07F00052812DA0DB9CB
:103CE00045F0800505F07F00042803D120782A28BC
:103CF00000D00EE0207805F07F010DF80100681C6F
:103D0000C5B202E0852D00D103E0641C20780028B4
:103D1000DED100BF8DB1002005F07F010DF801005C
:103D2000CBA16846FFF706FF18B90021089801707B
:103D300002E001210898017000254FF0000A444676
:103D400014E0641C0AF1010000F0FF0A207820282A
:103D500002D020782A2809D12046FFF79EFF064688
:103D6000282E03D02A2E01D0CDF810A020782828A4
:103D700002D020780028E4D14446049810B1049879
:103D8000401C04444FF0000A002654E0207810B98B
:103D90004FF0010A50E02078282803D116B9781C8A
:103DA000C7B213E02078292808D13EB917B1781E90
:103DB000C7B201E04FF0010A47B93DE02078222860
:103DC00004D10EB9012000E00020064647B9207852
:103DD00020282FD0207889F8000009F1010929E076
:103DE00020782C2804D101200290681CC5B214E070
:103DF0002078202811D0207828280ED04DB9BBF18A
:103E0000050F06DA20780DF80B000BF1010000F029
:103E1000FF0B0298401CC0B20290012F0AD10298F9
:103E2000022807D10298401CC0B202900398401C9F
:103E3000C0B20390641CA9E700BF0398012809D110
:103E400000200DF80B0082A16846FFF773FE08B949
:103E500000200390079903980870002089F800005B
:103E6000504609B0BDE8F08FF0B503461546002076
:103E700000220026002455E01F782C2F01D104B920
:103E800001221F78292F01D01F780FB904B94AE009
:103E9000002E34D11F78302F02DB1F78392F11DD2F
:103EA0001F78612F02DB1F78662F0BDD1F78412FF3
:103EB00002DB1F78462F05DD1F78582F02D01F78B0
:103EC000782F0CD102B12EE01F78612F03DB1F7811
:103ED000203F0F7001E01F780F70491C1FE01F7812
:103EE000222F04D102B11EE00126012417E01F7821
:103EF000202F14D01F782C2F11D0FF2613E01F780D
:103F0000222F00D1002402B10DE044B11F785C2FB4
:103F100002D15B1C471CF8B21F780F70491C471C6C
:103F2000F8B25B1CA8E700BF00270F702E70F0BD31
:103F300002460020002105E0474B5B5C0344D8B2F9
:103F40004B1CD9B29142F7DB70472DE9F043B5B075
:103F500005460F460024002604E000213E48815516
:103F6000701CC6B20A2EF8DB06E06D1C287818B962
:103F7000012035B0BDE8F08328782828F5D16D1CE4
:103F800061E034AA69462846FFF76EFF06463544CD
:103F90009DF8D00020B1012827D0FF284CD149E05E
:103FA0009DF8000000B333A96846FFF7F6FD06460A
:103FB0000EB10220DDE72046FFF7BAFF26490A319D
:103FC000339A0A50A1F12400008B0121A1408843BB
:103FD00021491A39088304211F480155601CC4B2C5
:103FE0000A2C01DD0320C4E726E06846FFF7BEFD8A
:103FF000401C00F0FF082046FFF79AFF16490A31DF
:1040000000EB010949466846FFF7A5FD12481A383A
:10401000018B0120A040014388B20F491A3908835F
:104020000D4800F80480601CC4B20A2C01DD032096
:104030009FE701E002209CE700BF2878292801D0F3
:10404000287800B900E09CE700BF3C70002090E7B2
:10405000766F696400000000A60000207047000031
:104060000FB4044910B503AA029800F035FC10BC47
:104070005DF814FB340000200FB41CB5074B06AAF2
:104080007B4469460090059800F0F7FB00206946E4
:1040900000F006FC1CBC5DF814FB00001D080000CD
:1040A00070B5044685690068C10601D5302600E078
:1040B0002026C00707D070BDD4E9012130469047C3
:1040C000206A401C20626D1EF6D570BD70B5044696
:1040D00085690078C00707D170BDD4E9012120208F
:1040E0009047206A401C20626D1EF6D570BD70B5E9
:1040F0000C460546012A05D02878800600D5EA69D5
:10410000002302E0012305E05B1C934202D2E05C45
:104110000028F9D1A869E618C01AA861286A1844CD
:1041200028622846FFF7BCFF04E0D5E9012114F816
:10413000010B9047B442F8D32846FFF7C7FF70BD84
:104140002DE9F0410646002410687529314616A570
:1041500010D0AFF30080002802DA404213A507E038
:1041600031688A0701D512A502E0490704D511A5D7
:10417000012401E0AFF3008000210A2206F12407A8
:1041800009E0B0FBF2FCB0FBF2F302FB1C003030A4
:1041900078541846491C0028F3D123462A46304655
:1041A000BDE8F04100F0FCB8000000002D00000068
:1041B0002B0000002000000070B504460D4621468B
:1041C0001068AFF300802188090502D50F4A7A44B0
:1041D00002E00E4A7A440E32002104F1240305E085
:1041E00000F00F060009965D5E54491C0028F7D1C7
:1041F00020780023000704D5702D02D009B10223D6
:1042000011322046BDE8704000F0CAB826350000E3
:104210002DE9F05F894604464FF0000ADFF874B1DB
:10422000FB44C0F820A02046E1688847002874D0ED
:10423000252806D0D4E901219047206A401C20623D
:10424000F1E700265F462046E168884720280546BA
:1042500007DB312D05D2781910F8200C08B1064380
:10426000F1E7B00701D526F00406C4F81CA000272A
:10427000C4F818A02A2D09D0284601F08DF838B3CB
:1042800004EB8708303DC8F8185019E059F8041BB2
:10429000204604EB87029161E1688847012F0546BB
:1042A00018D1E069002820DA26F020061DE0D8F8B1
:1042B000180000EB800005EB40003038C8F818000B
:1042C0002046E1688847054601F066F80028EED1EF
:1042D000012F0AD02E2D08D12046E16888477F1C87
:1042E0000546022F46F02006C4DBA069002803DA49
:1042F000404246F00106A061F00701D026F010060A
:104300006C2D0BD0682D09D04C2D39D06A2D35D0AD
:10431000742D35D07A2D33D016E038E0E1682F4681
:1043200020468847B842054609D16C2F26D04FF465
:104330008060E168064320468847054604E06C2F0C
:104340001AD04FF4807006430DB3A5F1410019282F
:1043500002D8203546F400664A46294620462660A3
:104360004E46FBF71DFF80B101280BD0F61D26F04D
:10437000070000F1080956E74020E4E78020D8E76D
:104380000020D6E706F104094DE7284652E7206AE7
:10439000BDE8F09FFC3400007047704770477047DD
:1043A0002DE9F0470D4699469246044600F124084F
:1043B0000168880604D5E06921F01001216000E061
:1043C0000120A84201DD471B00E00027A1697A19FE
:1043D00002EB0900081AA0612078C00602D420462A
:1043E000FFF75EFE002608E0D4E901211AF8060076
:1043F0009047206A401C761C20624E45F4DB2078F2
:10440000C0060AD52046FFF74BFE06E0D4E901219D
:1044100030209047206A401C2062381EA7F1010717
:10442000F4DC07E0D4E9012118F805009047206A80
:10443000401C2062281EA5F10105F3DC2046FFF791
:1044400045FE2078000602D50220BDE8F087012055
:10445000FBE770472DE9FF4F0C461E464FF0FF3734
:104460008BB0D2E90001DDF860800A908A46C1F382
:104470000A5505B93D46002108464FF00000BAF143
:10448000000F00F4400005DA00EB80004FF440011B
:1044900001EA50004FEA9059B9F1010F00DDB94629
:1044A0000A9850EA4A000ED044F61050A5F2FF35A3
:1044B00045432F14B8F1000F1ED07542291E1EDD92
:1044C000C9F100021CE0B8F1010F4FF0000001D06B
:1044D000302103E0F24305E02154401CB042FBDBF5
:1044E00030460022002121540B99C1F80880C1E90F
:1044F00000200FB0BDE8F08FBD1B6D1CDEE74A4603
:1045000000DA694206A800F083FA06AB93E80700D8
:1045100003AB83E8070050460A9900F061FB8DE881
:104520000700A0F500501F3800900398002D0ADD09
:1045300042F21F014A460844002303A9039068463B
:1045400000F0CAFD09E0A0F500504A461F380023DC
:1045500003A90390684600F0D4FD8DE8070000042D
:10456000000C03D04FF0FF30410800E01046B8F1D6
:10457000000F03D00022009215461EE0751E05D4E0
:1045800000F0C0F9303262556D1EF9D5B3460122F4
:10459000084302D000227F1C04E02078302801D19B
:1045A00000227F1E002A099784D01DE0112D07DA12
:1045B00000F0A8F9303262556D1C50EA0102F5D1C5
:1045C000084302D00098C8B10EE00021681E05E043
:1045D000235C625C63542254401E491C8142F7DB19
:1045E000AB46A81B401E0990002004F80B000B9856
:1045F000099AC0F80880C0E9002B7AE711264FF02D
:10460000000857E72DE9F04F88460446D21D22F0F6
:10461000070191B0D1E90001CDE90A0100F0A8FE3F
:1046200002460B98C00F01D02D2007E020688107BB
:1046300001D52B2002E0202101EAC000032A0990C5
:1046400001D0072A05DB03464146204600F0A0F9C9
:104650000BE12078800601D5E06900E00620B8F182
:10466000650F814606D0B8F1660F18D0B8F1670F14
:1046700070D131E00020B9F1110F009001DB11235E
:1046800001E009F101030AAA01A90CA8FFF7E2FE63
:10469000DDE90C70002609F10105834647E00120A1
:1046A0004B4600904FF000470AAA01A90CA8FFF75B
:1046B000D1FEDDE90DB00C995D46002610B909F177
:1046C00001000D18B9EB050003D4C0F1FF3609F164
:1046D0000105A5EB09002BE0B9F1010F01DA4FF05C
:1046E00001090020B9F1110F0090484601DD1123A6
:1046F00000E003460AAA01A90CA8FFF7ABFEDDE91A
:104700000C704D4600268346207800070AD4AB453E
:1047100000DA5D4601A8012D04DD411911F8011CE4
:10472000302907D04F4502DA17F1040F04DA0120CF
:1047300082460FE06D1EEEE7002F02DCED1B3E44CB
:1047400003E0781CA84200DD7D1CB81B00F1010AC3
:104750004FF000472078000703D4AA4501DB4FF053
:10476000FF3A0021B7F1004F0DF143088DF84310D7
:1047700024D002202B23002F01DA7F422D230A218F
:10478000021EA0F1010000DC5FB197FBF1FC97FB7A
:10479000F1F201FB1C7C17460CF1300C08F801CD3E
:1047A000EEE7A8F1010003702188090501D5452134
:1047B00000E06521A0F1010800F8011C09980FA98B
:1047C000A1EB0807FF1D00B10120411901EBEA70C0
:1047D000A1693844081A401EA0612078C00602D49E
:1047E0002046FFF75DFC099828B1D4E901219047E4
:1047F000206A401C20622078C00622D52046FFF7A0
:104800004FFC1EE0002E04DBB34502DD01A8805DF5
:1048100000E03020D4E901219047206A401C20624A
:10482000761CAAF101005FEA000A0AD100F066F8DE
:10483000C0680168405CD4E901219047206A401CAF
:104840002062281EA5F10105DCDC07E0D4E9012186
:1048500018F8010B9047206A401C2062381EA7F10F
:104860000107F3DC2046FFF731FC032011B041E6DD
:1048700001694A1C02610878704700B58FB0CDE924
:1048800001310021059105497944CDE90310114614
:104890006846FFF7BDFC0FB000BD0000E5FFFFFF5D
:1048A0000A6802F8010B0A60704710B5436913B13A
:1048B000AFF3008001E0FFF71AFC012010BD127871
:1048C00000F124010A7000224A700122EDE711680C
:1048D0004FF0FF32E9E70000074B70B50D467B440F
:1048E000FFF7CBFF0446284600F004F910B14FF063
:1048F000FF3070BD204670BD49C6FFFF00487047BD
:104900006806002030B5B0F10A024FEA900E71F14E
:1049100000034EEA817EB0EB0E0061EB91014FEA9D
:10492000101E4EEA017E10EB0E0041EB11114FEA12
:10493000102E4EEA016E10EB0E0041EB11214FEAF2
:10494000104E4EEA014E10EB0E0041EB11414018A3
:1049500041F100014FEAD00040EA41704FEAD10135
:1049600010EB80054FEA810444EA907444EB0104A3
:104970006D1944EB0404521BA3414FF0000348BFE0
:104980000A3200D530BD401C41F1000130BD0000AD
:104990002DE9F0411F46044603260168072A01F469
:1049A000006004DB08B116A505E016A503E008B118
:1049B00015A500E015A521F010002060A069C01E1B
:1049C000A0610FB1401EA0612046FFF769FB4FB107
:1049D000D4E9012138469047206A401C2062C01C5F
:1049E000206206E0206AFAE7D4E9012115F8010BFC
:1049F0009047761EF8D22046FFF768FBBDE8F081AD
:104A00004E414E006E616E00494E4600696E660072
:104A10002DE9F047814616468AB0354878440DC8DE
:104A20008DE80D0032487844801C03AC0DC884E842
:104A30000D0041F69B300844372190FBF1F290FBCA
:104A4000F1F5A5F1800501FB12041B3C02D564427F
:104A5000012000E00020DFF898A080460027FA44FB
:104A6000AAF1BE0A0EE0E0070AD03246684607EB1C
:104A7000470101230AEB810100F043FB8DE80700A9
:104A800064107F1C002CEED1194F7F44AE3F19E01B
:104A9000E80715D007EB04100DF1180A90E80E0096
:104AA0008AE80E00C068F04201D198190890324699
:104AB000012306A903A800F024FB03AB83E8070049
:104AC0006D10641C002DE3D14FF00103324669469E
:104AD000B8F1000F03A802D000F0FEFA01E000F0E8
:104AE00010FBC9E90001C9F808200AB0BDE8F08749
:104AF000902D0000007B00F0800070470048704758
:104B0000480600207546FFF7F9FFAE4605006946E6
:104B1000534620F00700854618B020B5FCF7B0FAE0
:104B2000BDE820404FF000064FF000074FF00008AE
:104B30004FF0000B21F00701AC46ACE8C009ACE82F
:104B4000C009ACE8C009ACE8C0098D46704710B593
:104B50000446AFF300802046BDE81040FBF749BB98
:104B60004FF0013C50F8042B51F8043B9A4221D1FC
:104B7000A2EB0C03934313EACC1317D150F8042B88
:104B800051F8043B9A4215D1A2EB0C03934313EA6C
:104B9000CC130BD150F8042B51F8043B9A4209D1A5
:104BA000A2EB0C03934313EACC13DBD04FF00000CD
:104BB000704700BFD01A01BAB1FA81F101F01801B3
:104BC00022FA01F0CB40C1F12001DBB2C0B2C01A21
:104BD0002CFA01F3D11A914311EAC311E6D17047BF
:104BE0005FEA400C08BF91F0000F4FEA8C234FEAB8
:104BF000C12243EA51514FEA1C5018BF00F5F04062
:104C00004FEA300018BF41F000415FEA6C5C00F0F1
:104C10002980BCF1FF3F08BF40F080407047130C73
:104C200006BF12044FF0100C4FF0000C130E04BF1F
:104C300012020CF1080C130F04BF12010CF1040C4A
:104C4000930F04BF92000CF1020CD30F04BF52006B
:104C50000CF1010C11464FF00002A0F11F00A0EB77
:104C60000C00704711F0004F08BF704731F0004151
:104C70003FF4D5AF0B0C06BF09044FF0100C4FF0FA
:104C8000000C0B0E04BF09020CF1080C0B0F04BF43
:104C900009010CF1040C8B0F04BF89000CF1020C0C
:104CA000CB0F04BF49000CF1010CCCF12003A0EBA9
:104CB0000C0022FA03F302FA0CF241EA030100F1BC
:104CC0000100704720F07F4C80EA030023F07F470B
:104CD000ACEB070303F57C5300F0004003F1FF0346
:104CE0002DE980494FEA154B09B44FEA144325EAF0
:104CF0000B4E24EA03480FF2042606EB132749085B
:104D00003E785FEA320203FB0667C7F5000707FB40
:104D100006F64FEA54374FEAD64606F1020607FB7D
:104D2000066CCCF1005C4FEA1C472CEA074C07FBF1
:104D300006F40CFB06F504EB15464FEA961634BF55
:104D400000204FF000404FEAD13706FB07FC4FEA46
:104D50001C4C0CFB0BF7D21B03FB0CF761EB0701A0
:104D60000CFB0EF7B0EB074072EB17420CFB08F799
:104D700034BFA2EB0742B2EB074261EB17414FEAA7
:104D80000C444FEA910706FB07FC4FEA1C4C0CFB56
:104D90000BF7B0EBC74072EB573203FB0CF734BF95
:104DA000A2EBC742B2EBC74261EB57310CFB0EF7E7
:104DB000B0EBC70072EB57720CFB08F734BFA2EBE5
:104DC000C702B2EBC70261EB5771039F4FEA8161E3
:104DD00041EA921104EBCC044FEAD1374FEA8262E8
:104DE00006FB07FC42EA90124FEA80604FEA1C4C37
:104DF0000CFB0BF7D21B03FB0CF761EB07010CFB61
:104E00000EF7B0EB074072EB17420CFB08F734BF0C
:104E1000A2EB0742B2EB074261EB17414FEA8C5518
:104E20004FEA910704EB9C2406FB07FC4FEA1C4C5D
:104E30000CFB0BF7B0EBC74072EB573203FB0CF7E0
:104E400034BFA2EBC742B2EBC74261EB57310CFB58
:104E50000EF7B0EBC70072EB57720CFB08F734BFCC
:104E6000A2EBC702B2EBC70261EB577115EB4C2501
:104E70004FEA816141EA92114FEA82624FEAD137EB
:104E800042EA901206FB07FC44F100044FEA8060FE
:104E90004FEA1C4C0CFB0BF7D21B03FB0CF761EB2E
:104EA00007010CFB0EF7B0EB074072EB17420CFB4F
:104EB00008F734BFA2EB0742B2EB074261EB1741A0
:104EC00015EB1C154FEA813141EA92414FEA8232DB
:104ED00042EA90424FEA80304FEA0C7644F10004F7
:104EE00048EA03434EEA0B484FF0000EB2EB080CC1
:104EF00071EB030724BF624639464EEB0E0E4FF0AE
:104F0000000B0018524149414BEB0B0BB2EB080C64
:104F100071EB03077BF1000B24BF624639464EEB71
:104F20000E0E4FF0000B0018524149414BEB0B0B9A
:104F3000B2EB080C71EB03077BF1000B24BF624658
:104F400039464EEB0E0E51EA020718BF46F0010635
:104F500016EB0E7655F1000254F1000103D5BDE8C1
:104F60008901BDE80088BDE88901BDE80048B6199F
:104F7000524141EB0101A3F10103704780807F7E24
:104F80007D7C7B7A797877767675747372717170BF
:104F90006F6E6E6D6C6C6B6A6A6968686766666571
:104FA0006464636362616160605F5F5E5E5D5D5CFF
:104FB0005C5B5B5A5A595958585757565655555570
:104FC0005454535352525251515050504F4F4F4ED0
:104FD0004E4D4D4D4C4C4C4B4B4B4A4A4A4949491E
:104FE0004848484747474746464645454544444460
:104FF000444343434342424242414141002B9C4689
:1050000030D477002BD01CB54FEA370703B44FF0EC
:1050100010004FF01001BAF1000F06D0BCF1000FE4
:10502000DCBF40F0080040F008014FF000000FBC6A
:10503000BDE810400BF1010BBBF1010F08BF5FEAA7
:10504000170722BF12F1010211F101014FF00041D7
:1050500043F1000300F0004043EA00007047F9D339
:105060005708D0E746EA064613F1400F4FEA1646C6
:105070001FDD13F1200FDFBF16430A460021203346
:105080005B42BED0C3F1200746EA064602FA07F7A4
:105090004FEA164646EA0706C3F1200722FA03F252
:1050A00001FA07F721FA03F14FF0000342EA070281
:1050B000A7E746EA020646EA06464FEA164646EAE9
:1050C0000106BCBF46EA0646360C4FF000034FF01F
:1050D00000024FF0000194E72DE9804C9A46934678
:1050E00070B491E8380007C831EA400C48BF34EA90
:1050F000430C03D5FFF7E6FDFFF780FFF0BCBDE8EA
:10510000008C2DE9804C9A46934670B491E83800A3
:1051100007C810F0804F08BF13F0804F03D100F094
:1051200005F8FFF76BFFF0BCBDE8008C20F07F476F
:1051300080EA030023F07F4C07EB0C03A3F57C53BC
:1051400000F00040A3F1FE0392F0000F00F0B380E6
:1051500095F0000F00F077802DE901494FEA1140EA
:105160004FEA144621EA004800FB06FC24EA064701
:1051700008FB06F607FB08F800FB07F718EB0648E4
:105180004CEB164C4FEA124B18EB07484FEA15460A
:105190004CEB174022EA0B4E0BFB06FC25EA0647B8
:1051A0000EFB06F607FB0EFE0BFB07F71EEB064E8B
:1051B0004CEB164C4FF000061EEB074E4CEB174B1A
:1051C00018EB0B0840F1000018EB0E0B58EB000831
:1051D00040F100008F1A4FF000013CBFC943661B2D
:1051E00014BFB5EB040C00213CBFC943F61B4FEACA
:1051F00017444EEA8E0E27EA04454FEA1C4704FB8B
:1052000007622CEA074C05FB07F70CFB05F604FBCD
:105210000CFC16EB074642EB174216EB0C4642EB32
:105220001C421BEB060658EB0202414146EA9E0671
:1052300001D5BDE80189B619524141EB0101A3F145
:105240000103BDE801894FEA14454FEA114724EAFA
:10525000054621EA074C05FB07F406FB07F70CFBA4
:1052600006F105FB0CFC11EB074144EB17444FEA38
:10527000124711EB0C4144EB1C4422EA074C05FB9E
:1052800007F206FB07F70CFB06F605FB0CFC16EB1A
:10529000074642EB174216EB0C4642EB1C456A18D8
:1052A00054F1000148BF7047B619524141EB01016A
:1052B000A3F10103704795F0000F37D04FEA114278
:1052C0004FEA144721EA024624EA074C02FB07F1A1
:1052D00006FB07F70CFB06F402FB0CFC14EB07447F
:1052E00041EB17414FEA154714EB0C4441EB1C41CD
:1052F00025EA074C02FB07F506FB07F70CFB06F651
:1053000002FB0CFC16EB074645EB174516EB0C466B
:1053100045EB1C42121951F1000148BF7047B61904
:10532000524141EB0101A3F1010370474FEA1445DB
:105330004FEA114724EA054621EA074C05FB07F12D
:1053400006FB07F70CFB06F24FF0000605FB0CFC12
:1053500012EB074241EB174112EB0C4251EB1C419F
:1053600048BF7047921841EB0101A3F10103704758
:10537000490050EAC12018BF04204A0D18BF40F070
:10538000010040F2FF72B2EB515F08BF40F0020033
:10539000012808BF0520704730380A2801D20120B3
:1053A000704700207047000010B500290AD0087827
:1053B000002807D005487844FFF7D2FB002801D029
:1053C000002010BD0248784410BD0000C624000033
:1053D000BE24000021F00042A2F16052B2F5801F0D
:1053E00001F0004328BFD2F17F6C0BD95FEA001CAB
:1053F00043EAC20242EB507018BF704728BF20F04A
:1054000001007047B2F5801FBCBF184670474FEAD5
:10541000410C1CF5001F02D2084600F086BD70B595
:1054200000F0FCFA00000089FFF7F6BF4FF00040E3
:10543000A0F580007047000010B591EA030F48BF47
:1054400083F0004300F18883841A71EB030C05D2CA
:10545000121943EB0C03001B61EB0C01DFF824E194
:105460004FEA1154A4EB135C1EEA430F18BF9EEAE7
:10547000445F73D023EA0E03DCF1200E21EA0451CD
:1054800043F4801332D322FA0CFE10EB0E0023FA01
:105490000CFE41EB0E01CCF1200E03FA0EFE10EBD8
:1054A0000E0051F10001B1F5801FCCF1200E32D277
:1054B00001EB045112FA0EF2BDE8104058BF7047DC
:1054C000401C38BF5FEA420218BF7047002814BF73
:1054D00020F0010041F100014FEA410313F5001FE4
:1054E00038BF7047A1F1C04100F0E6BA012A43EB92
:1054F0000302ACF1200CDCF11F0E32BF4FF0000EA6
:1055000023FA0CF310EB030041EB0451B4EB115FF1
:10551000D0D0A1EB045101F5801149085FEA3000B9
:1055200001EB04510ED350F1000038BF12FA0EFE09
:1055300008D1BDE81040C9E7401C38BF5FEA42020D
:10554000CAD1C3E7BDE810404FEA410313F5001F7D
:1055500038BF7047A1F1C04100F0AEBA9EEA445F87
:1055600008D011EA5E0FBDE8104004BF01F0004111
:1055700000207047BDE8104070B500F04FFA00BF42
:1055800064FBBE3E0000E0FF491058BFC1F140413E
:105590005B1058BFC3F140438B42EFF3008070476C
:1055A0002DE9C04130B4DFF8A0C23CEA111418BFA5
:1055B0003CEA131400F0EC8081EA03051CEA1114A4
:1055C00044EAD57418BF1CEA131500F0C780A4EB99
:1055D00005044FF0004545EAC12145EAC32341EAED
:1055E000505143EA525304F17F74994204F5003458
:1055F0004FEAC0204FEAC22208BF904200F09C80D0
:105600004FEA13650FF24016765D4FEA134506FB2D
:1056100005F7C7F1807706FB07F74FEAD737A7FBF7
:1056200003687642C8F58038A7FB06CE38BFA8F1DC
:10563000010807FB08E64FF0000EA6FB028CE6FB14
:1056400003CEDCF1000CCEF1004E38BFAEF1010EFE
:10565000A6FB0C584FF000074FF00005E6FB0E8745
:10566000A1FB08C6A0FB07CE16EB0E0645F1000510
:10567000E1FB076515F1E04E7EBFA4F580345FEADB
:1056800046066D4116F1800745F100054FEA1727E0
:105690004FEA066647EA0567A6F1DE46B6F1805F87
:1056A0004FEA15251FD9384624F0010C05EBC471CB
:1056B000BCF1FE6F01EB0C1102D8F0BCBDE800811B
:1056C00024425CBF01F5801E9EEAC47F02D4F0BC78
:1056D000BDE80081244238D4F0BCA1F1C041BDE84E
:1056E000004100F0E9B94FEAD22242EA43524FEAC0
:1056F000D323A7FB02864FEAD02040EA415007FBA4
:1057000003661EEA0E0F4FEAD12105FB026658BF61
:10571000A6EB0056B6EB00564FEA520E4EEAC37E99
:1057200018EB0E0E56EB530EBDD518EB02085E417A
:105730007F1C55F10005B6E74FF480154FF00007C8
:105740004FF000064FF00008ADE7F0BC4FF000004E
:1057500001F1C04101F00041BDE8008111EA0C1FD8
:105760000CEA131500D00CE013EA0C1F00F02580A2
:105770004FF00000F0BC81EA030101F00041BDE8F8
:105780000081F0BCBDE8004181EA030100F094B95A
:10579000F0BCBDE8004170B500F040F9097EFC3E68
:1057A00000F007B881EA03014FF0000001F000416A
:1057B000704781EA030100F07FB9F0BCBDE8004109
:1057C0004FF0000021497047FFFDFBF9F7F5F4F2B7
:1057D000F0EEEDEBE9E8E6E4E3E1E0DEDDDBDAD88C
:1057E000D7D5D4D3D1D0CFCDCCCBCAC8C7C6C5C4EA
:1057F000C2C1C0BFBEBDBCBBBAB9B8B7B6B5B4B301
:10580000B2B1B0AFAEADACABAAA9A8A8A7A6A5A4EB
:10581000A3A3A2A1A09F9F9E9D9C9C9B9A999998AF
:105820009797969595949393929191908F8F8E8E52
:105830008D8C8C8B8B8A89898888878786858584DF
:1058400084838382828181800000FF070000F87FCB
:1058500051EA030C17D41CF5801F58BFBCF5801FFC
:1058600000F10680994218BF704708BF9042704708
:1058700007D711F5801F58BF13F5801F19D499421F
:105880007047894270471CF5801F08D5BCF5801F02
:10589000F7D58B4218BF704708BF824270474FF45C
:1058A000001C1CEB410F38BF1CEB430F01D28B4295
:1058B000704770B500F0B2F8922449004FF00051E3
:1058C0004FF08053FFF760BEDFF848C170B51CEAA7
:1058D000111E1EBF1CEA13159EEA0C0F95EA0C0F51
:1058E00000F06F8081EA030423EA4C134EEAD47E71
:1058F00021EA4C1141F4801143F48013AE44A1FB22
:10590000024CA0FB0365AEF17F7E361955EB0C050A
:10591000A1FB034C4CF10003A0FB021C16EB0C0690
:10592000654153F10003094218BF46F0010613F424
:10593000007F0BD14FEA03314FEA0530340341EACF
:10594000155140EA16506FF003020AE04FEAC321F6
:105950004FEAC520F40241EA555140EA56506FF033
:10596000020202EB2E4201EB025585EACE710AD00B
:105970005FEA440C18BF24F0004450F1000041F1EC
:10598000000120EAD47040F2FE7C624500D270BD76
:10599000A84214BF4FF080444FF04044002E08BF8F
:1059A0000024BEF1806FA8BFA1F1C041BDE87040E6
:1059B00080F282804FF0000001F1C04101F000410F
:1059C00070479EEA0C0F0CEA131518BF95EA0C0FEE
:1059D00006D04FF0000081EA030E0EF0004170BDCA
:1059E00000F01CF88900013E00F007B800F009B88B
:1059F0004FEA430C5FEA5C5C08D081EA030100F0E7
:105A00005BB84FEA410C5FEA5C5CF6D14FF00000F6
:105A1000014970470000FF070000F87F0EF1020EF9
:105A20002EF0030E5EF8046B364205D4012A43EBD8
:105A3000030515F5001F12D8012841EB010C1CF5D8
:105A4000001F0CD80ED14FEAD17C15F5001F0CEBCE
:105A50004C0C0CF1020C08BF4CEBD37C04E04FF073
:105A6000080C01E04FEAD37C0CEB4C0526FA05F656
:105A700006F00706B6F1040C06D20EEB860CBDE864
:105A800070404CF0010C6047DFE80CF0090B02029B
:105A90004FF000414FF00000A1F5002170BD194604
:105AA0001046012851EB010418BFD4F5001484BF3F
:105AB000002001F0004170BD0808A0F500114FEA78
:105AC0003101704753EA010C17D41CF5801F58BFF1
:105AD000BCF5801F00F106808B4218BF704708BFDD
